:100000000C9462000C948A000C948A000C948A0070
:100010000C948A000C948A000C948A000C948A0038
:100020000C948A000C948A000C948A000C9434047A
:100030000C948A000C948A000C948A000C948A0018
:100040000C9492030C948A000C9402040C94DC032C
:100050000C948A000C948A000C948A000C948A00F8
:100060000C948A000C948A000000000024002700F1
:100070002A0000000000250028002B0000000000DE
:1000800023002600290004040404040404040202DA
:100090000202020203030303030301020408102007
:1000A0004080010204081020010204081020000012
:1000B0000008000201000003040700000000000027
:1000C0000000D10A11241FBECFEFD8E0DEBFCDBFA4
:1000D00013E0A0E0B1E0E2EFFBE102C005900D9279
:1000E000A039B107D9F725E0A0E9B3E001C01D921E
:1000F000A731B207E1F710E0C2E6D0E004C02197D3
:10010000FE010E94120BC136D107C9F70E944406B6
:100110000C94F70D0C940000A9EDB4E02FEF3FEF25
:10012000AD01495D54404817590770F4ED91E2273D
:10013000F0E0EE0FFF1FE15BFE4F232F33274081DE
:10014000518124273527ECCFC901809590950895DA
:10015000EF92FF920F931F93CF93DF93FB019C01CC
:100160002F5F3F4FDC01A752BB4F3097A1F480E3D4
:100170008C93C901019627523B4F4BE3F901408311
:10018000FC01E752FB4F1082DF91CF911F910F913D
:10019000FF90EF9008956130710511F481E3E8CF8D
:1001A0009C0105E010E040E0C0E1D7E28AE0E82EE3
:1001B000F12CEC17FD0710F44423A1F0CF01BE0190
:1001C0000E94FE0AD901A752BB4F80E3860F8C9391
:1001D0006C9FC0016D9F900D1124E81BF90B2F5FE0
:1001E0003F4F41E0CE01B7010E94FE0AEB010150F2
:1001F0001109F9F6BECFFC01E752FB4F60839C0169
:100200002E5F3F4FFC01E652FB4F8BE38083F901E9
:10021000E752FB4F1082C9010895833081F028F422
:10022000813099F08230A9F008958730A9F08830A4
:10023000C9F08430B1F4809180008F7D03C080913B
:1002400080008F7780938000089584B58F7784BD78
:10025000089584B58F7DFBCF8091B0008F77809318
:10026000B00008958091B0008F7DF9CFCF93DF93D8
:10027000282F30E0F901E255FF4F8491F901E6564D
:10028000FF4FD491F901EA57FF4FC491CC23A1F05D
:1002900081110E940D01EC2FF0E0EE0FFF1FE458DA
:1002A000FF4FA591B491EC91ED2381E090E009F42A
:1002B00080E0DF91CF91089580E090E0FACF1F9326
:1002C000CF93DF93282F30E0F901E255FF4F84915F
:1002D000F901E656FF4FD491F901EA57FF4FC49157
:1002E000CC23A9F0162F81110E940D01EC2FF0E014
:1002F000EE0FFF1FEE58FF4FA591B4918FB7F89402
:10030000EC91111108C0D095DE23DC938FBFDF91F3
:10031000CF911F910895DE2BF8CFCF93DF9390E01C
:10032000FC01E656FF4F24918A579F4FFC018491B0
:100330008823D1F090E0880F991FFC01E859FF4F06
:10034000A591B491FC01EE58FF4FC591D491611174
:100350000EC09FB7F8948C91E22FE0958E238C937A
:100360002881E223E8839FBFDF91CF9108958FB763
:10037000F894EC91E22BEC938FBFF6CFAF92BF9243
:10038000CF92DF92EF92FF920F931F93CF93DF9361
:100390006C017B018B01040F151FEB015E01AE1890
:1003A000BF08C017D10759F06991D601ED91FC91B2
:1003B0000190F081E02DC6010995892B79F7C501DF
:1003C000DF91CF911F910F91FF90EF90DF90CF9031
:1003D000BF90AF900895FC01538D448D252F30E0E0
:1003E000842F90E0821B930B541710F0CF96089542
:1003F00001970895FC01918D828D981761F0A28D6F
:10040000AE0FBF2FB11D5D968C91928D9F5F9F7334
:10041000928F90E008958FEF9FEF0895FC01918DEA
:10042000828D981731F0828DE80FF11D858D90E057
:1004300008958FEF9FEF0895FC01918D228D892FF4
:1004400090E0805C9F4F821B91098F7399270895DC
:100450008CE394E00E941C0221E0892B09F420E047
:10046000822F089580E090E0892B29F00E942802D5
:1004700081110C9400000895FC01A48DA80FB92FE0
:10048000B11DA35ABF4F2C91848D90E001968F73BC
:100490009927848FA689B7892C93A089B1898C91DB
:1004A000837080648C93938D848D981306C002882A
:1004B000F389E02D80818F7D80830895EF92FF92F4
:1004C0000F931F93CF93DF93EC0181E0888F9B8D77
:1004D0008C8D98131AC0E889F989808185FF15C031
:1004E0009FB7F894EE89FF896083E889F989808154
:1004F0008370806480839FBF81E090E0DF91CF9123
:100500001F910F91FF90EF900895F62E0B8D10E044
:100510000F5F1F4F0F731127E02E8C8D8E110CC0B3
:100520000FB607FCFACFE889F989808185FFF5CFFE
:10053000CE010E943C02F1CFEB8DEC0FFD2FF11D9F
:10054000E35AFF4FF0829FB7F8940B8FEA89FB893B
:1005500080818062CFCFCF93DF93EC01888D882399
:10056000B9F0AA89BB89E889F9898C9185FD03C016
:10057000808186FD0DC00FB607FCF7CF8C9185FFFB
:10058000F2CF808185FFEDCFCE010E943C02E9CF02
:10059000DF91CF910895F89482E080939C031092AC
:1005A0009E0310929D03789480919F039091A003E5
:1005B000009729F001979093A00380939F030895DB
:1005C00090919B03911109C093E090939B0320E1CC
:1005D00037E230939A032093990361110CC0811183
:1005E0000CC080919B03815080939B038823C9F0AA
:1005F00090E080E008958111F4CF8091990390916B
:100600009A03019790939A0380939903892B21F081
:1006100083E080939B03ECCF10929B0381E090E0FA
:10062000089582E090E008952091B6033091B703D9
:10063000232B21F49093B7038093B6030895EF9290
:10064000FF920F931F93CF93DF938C01262F660F9A
:10065000330BE901E097CA30D10528F5FC01E080B1
:10066000F1808AE08E9DF0018F9DF00D1124CF0165
:100670006AE070E00E94FE0AE616F706A1F4CE0FCB
:10068000DF1FCE17DF0778F02E0F3F1F20533109F1
:10069000F8013183208380E0DF91CF911F910F918A
:1006A000FF90EF90089581E0F7CF8DE00E94360132
:1006B00060E0892B09F461E08DE00C945F01282F44
:1006C00030E090919803F901ED5DFE4F911108C063
:1006D0002B5F3E4FD9019C91911106C0873021F0CC
:1006E00061E080810C945F0160E0FBCF2091AC035E
:1006F0003091AD03232B21F49093AD038093AC0391
:100700000895FC0101900020E9F73197AF01481BE3
:10071000590BBC018CE394E00C94BE0188ED93E08E
:100720000C9481031F920F920FB60F9211242F93F6
:100730003F938F939F93AF93BF938091D4039091F6
:10074000D503A091D603B091D7033091D30323E012
:10075000230F2D3758F50196A11DB11D2093D3030A
:100760008093D4039093D503A093D603B093D7037B
:100770008091CF039091D003A091D103B091D20387
:100780000196A11DB11D8093CF039093D003A09338
:10079000D103B093D203BF91AF919F918F913F91BD
:1007A0002F910F900FBE0F901F90189526E8230FE2
:1007B0000296A11DB11DD2CF1F920F920FB60F92BC
:1007C00011242F933F934F935F936F937F938F9356
:1007D0009F93AF93BF93EF93FF938CE394E00E94BA
:1007E0003C02FF91EF91BF91AF919F918F917F91CB
:1007F0006F915F914F913F912F910F900FBE0F908E
:100800001F9018951F920F920FB60F9211242F93DD
:100810008F939F93EF93FF93E0914C04F0914D04DD
:100820008081E0915204F091530482FD1BC09081BD
:10083000809155048F5F8F7320915604821741F089
:10084000E0915504F0E0E45CFB4F958F80935504F4
:10085000FF91EF919F918F912F910F900FBE0F906D
:100860001F9018958081F4CF1F920F920FB60F92B0
:100870001124EF92FF920F931F932F933F934F9367
:100880005F936F937F938F939F93AF93BF93CF9318
:10089000DF93EF93FF9361E083E10E945F0180911A
:1008A0009803C1E08C27809398036091A80310926D
:1008B000940380919D0390919E03892B81F08091F8
:1008C000B1039091B2038230910509F403C108F09D
:1008D000B9C0009709F4C0C0019709F4E7C080913E
:1008E0009D0390919E03892BE9F0F89480919D03DC
:1008F00090919E03019790939E0380939D0378941B
:1009000080919D0390919E03892BC1F480E090E13A
:100910000E9476030E94CB0280919D0390919E03DA
:10092000892B61F480919C03882341F0813021F46C
:1009300082E090E10E9476030E94CB0280919403B2
:1009400010929403882309F472C180919D039091C1
:100950009E03892B09F46BC187E00E945F0380919D
:10096000950320919F033091A003232B09F464C1C8
:1009700081110FC061E081E10E945F0161E08EE0C2
:100980000E945F0161E08EE00E948D0181E0809312
:10099000950391EAE92E93E0F92E03E211E0C0E01D
:1009A000F70181917F01882309F458C180919C034C
:1009B000813009F053C18C2F0E945F03CF5F0F5F1E
:1009C0001F4FC73069F7CFE1D1E008EA13E083E2B7
:1009D000E82E81E0F82E89910E94360121E0892BD2
:1009E00009F420E0F80121938F01EC16FD0699F738
:1009F0008091960390919703009709F043C18091ED
:100A00009C03813009F430C1823009F436C160E0C2
:100A100083E10E945F01FF91EF91DF91CF91BF9140
:100A2000AF919F918F917F916F915F914F913F9186
:100A30002F911F910F91FF90EF900F900FBE0F908D
:100A40001F9018958330910509F4CBC0049709F0E5
:100A500046CF0E94CB0243CF80E00E94E00281306B
:100A60009105E9F0029709F03ACF8091AE03909199
:100A7000AF0381609093AF038093AE03C093940360
:100A800080E09AE2A5E7B5E180939003909391030B
:100A9000A0939203B093930383E090E013C081E0AE
:100AA00090E00E94760384E090E00CC0C093940331
:100AB00081E00E94E0028130910549F08230910589
:100AC00009F00DCF9093B2038093B10308CF82E079
:100AD00090E0E7CF61E082E10E945F01CBB1DBB142
:100AE00000E117E2809102019FEF980F90930201BD
:100AF000882319F00115110589F460E082E10E9454
:100B00005F01012BC9F484E090E09093B2038093DD
:100B1000B10383E090E00E947603E1CE82E00E9480
:100B20003601892BF9F201151105E1F2B19BF6CFDF
:100B300001501109B19AF2CFC064DF7B61E082E11C
:100B40000E945F0100E117E2809100019091010194
:100B5000892B59F10115110541F1DBB9CBB9DBB98D
:100B6000CBB9DBB9CBB9DBB9CBB9DBB9CBB9DBB925
:100B7000CBB9DBB9CBB9DBB9CBB9DBB9CBB9DBB915
:100B8000CBB9B19B03C001501109B19A82E00E9418
:100B90003601892BC9F280910001909101010197E2
:100BA0009093010180930001CFCF60E082E10E9429
:100BB0005F01012B69F08091AE039091AF038160DA
:100BC0009093AF038093AE0381E08093940358CF5A
:100BD00084E090E09093B2038093B10385E090E0CD
:100BE0009ACFC09394038091B003882329F0109288
:100BF000B00381E090E066CF8091900390919103E3
:100C0000A0919203B09193030097A105B10561F003
:100C10000197A109B1098093900390939103A09348
:100C20009203B09393035BCE84E090E03ACF60E010
:100C300086E00E945F0193CE882309F4AACE60E08B
:100C400081E10E945F0160E08EE00E948D0160E022
:100C50008EE00E945F01109295039BCE60E0F80148
:100C600080810E945F01AACE0E94550380ED97E02B
:100C70009093970380939603CACE0E94550384E60F
:100C800090E0F6CF0197F4CFCF93DF93CDB7DEB7E7
:100C90002A970FB6F894DEBF0FBECDBF789484B507
:100CA000826084BD84B5816084BD85B5826085BD68
:100CB00085B5816085BD80916E00816080936E00F6
:100CC00010928100809181008260809381008091E8
:100CD0008100816080938100809180008160809399
:100CE00080008091B10084608093B1008091B00059
:100CF00081608093B00080917A00846080937A0054
:100D000080917A00826080937A0080917A0081607D
:100D100080937A0080917A00806880937A001092A4
:100D2000C100E0914C04F0914D0482E08083E09199
:100D30004804F09149041082E0914A04F0914B0478
:100D40008FEC808310925404E0915004F091510490
:100D500086E08083E0914E04F0914F0480818061B1
:100D60008083E0914E04F0914F04808188608083FD
:100D7000E0914E04F0914F04808180688083E0917F
:100D80004E04F0914F0480818F7D808361E081E18A
:100D90000E948D0161E082E10E948D0161E083E1AA
:100DA0000E948D0103E211E061E0D8018D918D0177
:100DB0000E948D01B1E00B321B07B1F760E082E0C9
:100DC0000E948D0160E083E00E948D0160E084E07C
:100DD0000E948D0160E085E00E948D0161E08DE060
:100DE0000E948D0161E08DE00E945F01F8941092F5
:100DF000800010928100109285001092840089EF8B
:100E000090E09093890080938800809181008860B1
:100E10008093810080918100836080938100809124
:100E20006F00826080936F007894A8EDEA2EA3E0B3
:100E3000FA2E8CE394E00E941C02181619060CF09E
:100E400041C08CE394E00E94FA012091CD033091DF
:100E5000CE032431310540F18A3011F0811132C0C6
:100E60006091B3037091B40390E080E00E94A80009
:100E700065E40E94FB0068E070E00E94A8008C011D
:100E8000C8010E948C00BC01C8010E94A80089ED25
:100E900094E00E9481038FE493E00E94810310920A
:100EA000CE031092CD030EC0F901E854FC4F8A30F6
:100EB000B1F08823A1F02F5F3F4F3093CE032093F2
:100EC000CD03808380E090E0892B09F4B2CF0E94AB
:100ED0002802882309F4A9CF0E940000A6CF10821F
:100EE00018861F821E821D821C821B821A82198212
:100EF0001092B7031092B603E8EBF3E0FA87E987A4
:100F00002F01B12CA12C70E2372E10E000E06624F6
:100F10006A94762CF0E78F2EF3E09F2ED2018D910C
:100F20002D018B30E4F12091B6033091B703232BD0
:100F3000B1F5B2E0AB16B10419F1E82FE625F0E007
:100F4000EE0FFF1FE15BFE4F272D3327608071807E
:100F500062267326282F082E000C330B3F938F93A5
:100F6000A8E6B3E0BF93AF93FF92EF920E941F0BEE
:100F70000E948E030F900F900F900F900F900F9084
:100F8000D2018E916D018B3391F50F5F1F4FB1E050
:100F9000AB16B10419F682E0A82EB12CBFCF609435
:100FA00070948A818F9389818F937F926F9282E56B
:100FB00093E09F938F93FF92EF920E941F0B0E94EA
:100FC0008E030FB6F894DEBF0FBECDBFF3E53F161C
:100FD00009F4E4C127E5321609F4A1C182E538120B
:100FE000AEC18D819E81049708F4A9C1DBC10C328A
:100FF000E1E01E0709F46CC008F079C0063611055F
:1010000009F48BC008F057C00230110509F460C024
:10101000C8F40115110509F4C6C00130110509F421
:10102000E9C01F930F93EAE8F3E0FF93EF93FF9279
:10103000EF920E941F0B0E948E0382E090E00E94BC
:101040001403D1C00436110509F442C00536110558
:1010500041F76DE773E088ED93E00E94180B0E9462
:101060008E03D6016C91CE0103960E941F03882344
:1010700021F085E090E00E9414038C818F938B8196
:101080008F939F928F92FF92EF920E941F0B0E946C
:101090008E036BE773E088ED93E00E94180B0E94CB
:1010A0008E030F900F900F900F900F900F90AA2427
:1010B000A394B12C33CF093C110509F4FDC068F4A9
:1010C0000736110509F42ACF083C110509F0A9CF0C
:1010D00081E090E00E94140321CF0B3C1105E9F060
:1010E00008F4B7CF0C3C110509F418CF9ACF023998
:1010F00021E0120709F412CFB8F50F3291E0190779
:1011000009F40CCF38F50D32B1E01B0709F4ECC03F
:101110000E32E1E01E0709F084CF63E873E088ED4A
:1011200093E00E94180B0E948E03F6016081CE01AD
:1011300001960E941F03882321F087E090E00E941F
:1011400014038A818F9389818F9386E893E09F931C
:101150008F9343C00039F1E01F0709F4B9CF01397B
:1011600021E01207D1F25DCF063F81E0180709F4B4
:10117000D5CE50F4043FA1E01A0709F4A9CF053FEA
:10118000B1E01B0751F24DCF0935E2E01E0729F20D
:101190000A35F2E01F0709F4C1CE083522E0120734
:1011A00009F03FCF95CF6DE673E088ED93E00E94A4
:1011B000180B0E948E03D6016C91CE0107960E94F7
:1011C0001F03882321F083E090E00E9414038C81A8
:1011D0008F938B818F939F928F92FF92EF920E94B9
:1011E0001F0B0E948E030F900F900F900F900F9087
:1011F0000F9094CE64E773E088ED93E00E94180BA3
:101200000E948E03F6013080832D032C000C990B75
:101210009F933F9287E793E09F938F93FF92EF9284
:101220000E941F0B0E948E030F900F900F900F9043
:101230000F900F90F6018081833509F46DC044F45E
:10124000843461F1823509F043CF0CE211E066CEBF
:101250008635B1F0873589F0843509F039CF6BE7F1
:1012600073E088ED93E00E94180B0E948E03AA247D
:10127000A394B12C08E512E051CE04E610E04ECE66
:101280006BE773E088ED93E00E94180B0E948E03D9
:10129000AA24A394B12C00E911E040CE6BE773E0DF
:1012A00088ED93E00E94180B0E948E03AA24A39459
:1012B000B12C04EF11E032CE60E873E088ED93E0EA
:1012C0000E94180B0E948E03F6016081CE010596E4
:1012D0000E941F03882321F086E090E00E941403FF
:1012E0008E818F938D8176CF60E873E088ED93E0F7
:1012F0000E94180B0E948E03D6016C91CE010596B8
:101300000E941F03882321F086E090E00E941403CE
:101310008E818F938D81B4CE08EC10E0FFCD8B8150
:101320009C81029720F085E090E00E941403809158
:10133000B503811104C089E090E00E94140360911C
:10134000B3037091B40390E080E00E94A800009184
:10135000B6031091B70301151105E9F165E40E9488
:10136000FB00B8010E94A8009C012F5F3F4F8752ED
:101370009B4F4BE5DC014C93F901E752FB4FA985EC
:10138000BA858D91BA87A987A9014F5F5F4F90EE0B
:10139000980F9F3588F481939A01F1CF8D819E81BA
:1013A000079718F086E090E0C8CF8B819C81029768
:1013B00030F285E090E0C1CF8DE58083C9010296CF
:1013C00047525B4F2BE3FA012083FC01E752FB4FAE
:1013D0001082B30152CD632D0E94FB008C01F3E516
:1013E0003F1609F485C0F31594F024E4321609F48D
:1013F000BBC082E5381609F49CC08091B30390917C
:10140000B40301969093B4038093B30339CD96E56A
:101410003916A1F0A7E53A1601F1B4E53B12EDCF7C
:101420008091B1039091B20360E0039721F481E0D1
:101430008093B00361E070E0C8014DC0A3E3B1E068
:10144000F801E752FB4F8D910F5F1F4F90EE980F01
:101450009F3508F07FC08193F6CF61E070E0809106
:101460009D0390919E03892B11F470E060E0C80108
:101470000E94A8008C0180919C038230A9F02B81EE
:101480003C81232B61F1F89480E69AEE90939E03C1
:1014900080939D0380E395E79093A00380939F033F
:1014A00081E080939C03789461E070E080919D03DB
:1014B00090919E03892B11F470E060E0C8010E94B6
:1014C000A80061E070E020919F033091A003232BDE
:1014D00011F470E060E00E94A8008C018ECF882398
:1014E00019F30E94CB0281E090E10E947603DCCFE9
:1014F0006D817E810E94A8002D813E8160E02730B1
:10150000310520F42F553C4FF901608170E00E94B5
:10151000A8002D813E8127303105D0F461E04B8158
:10152000411101C060E02F553C4FD9016C9370E030
:10153000D2CF6D817E81C8010E94A8002D813E819D
:101540002430310528F428553C4FF9016081EFCF54
:1015500060E0EDCF8BE38083F801E752FB4F108210
:1015600081E08093B50349CF60910301709104013C
:1015700010920401109203010E94A8006091AC0334
:101580007091AD031092AD031092AC030E94A800BD
:101590006091AE037091AF031092AF031092AE034F
:1015A0009ACFECE3F4E01382128288EE93E0A0E09D
:1015B000B0E084839583A683B78381E191E0918332
:1015C000808385EC90E09587848784EC90E0978712
:1015D000868780EC90E0918B808B81EC90E0938B00
:1015E000828B82EC90E0958B848B86EC90E0978BDD
:1015F000868B118E128E138E148E0895AA1BBB1B20
:1016000051E107C0AA1FBB1FA617B70710F0A61B02
:10161000B70B881F991F5A95A9F780959095BC0123
:10162000CD010895EE0FFF1F0590F491E02D099470
:10163000FB01DC0101900D920020E1F70895AEE07E
:10164000B0E0E5E2FBE00C94CE0D0D891E8986E04A
:101650008C831A8309838FEF9FE79E838D83AE016E
:10166000475E5F4F6F89788DCE0101960E94420BD5
:101670002F813885020F131FF80110822E96E4E0A7
:101680000C94EA0DABE0B0E0E8E4FBE00C94C00D94
:101690007C013B018A01FC0117821682838181FF54
:1016A000C8C1CE0101965C01F7019381F30193FD5E
:1016B000859193FF81913F01882309F453C18532BD
:1016C00039F493FD859193FF81913F01853229F48F
:1016D000B70190E00E94320DE7CF912C212C312CE4
:1016E000FFE1F31538F08B3211F190F4803209F1FB
:1016F000833229F137FC3CC020ED280F2A3050F509
:1017000036FE20C08AE0989E200D1124922E06C03D
:101710008D3291F0803371F7689430F8F30193FDC6
:10172000859193FF81913F018111DACF21C06894A7
:1017300031F8689432F8F2CF689433F8EFCF6894B8
:1017400034F8ECCFEAE02E9E200D1124222E68946E
:1017500035F8E4CF8E3229F436FC04C1689436F8AB
:10176000DDCF8C3619F4689437F8D8CF8836B1F2CB
:10177000982F9F7D95549330E0F08336A1F1833705
:10178000C1F1833509F063C02801F2E04F0E511C0E
:10179000F801C080D180692D70E036FC02C06FEF87
:1017A0007FEFC6010E941C0D4C01689437F882013E
:1017B0000AC00C5F1F4FFFE3F98388248394912CA8
:1017C0006501E89437F833FE2DC0522C8114910442
:1017D00071F5552009F468CFB70180E290E00E94CE
:1017E000320D5A94F6CFF801808189830E5F1F4F26
:1017F000E4CF2801F2E04F0E511CF801C080D180E7
:10180000692D70E036FC02C06FEF7FEFC6010E94C9
:10181000270D4C018201D5CFB70180E290E00E94F4
:10182000320D2A942814190409F0B0F7CECFF6012E
:1018300037FC859137FE81916F01B70190E00E94DE
:10184000320D51105A94F1E08F1A9108BFCF8436AF
:1018500019F0893609F077C0F80137FE6BC0608156
:101860007181828193810C5F1F4FF32DFF763F2E94
:1018700097FF09C090958095709561957F4F8F4F28
:101880009F4F689437F82AE030E0A5010E94620D6E
:10189000C82ECA188C2C432C36FE0CC0E89440F895
:1018A000C91440F434FE05C032FC03C0F32DFE7EA3
:1018B0004F2E892C44FE95C0FE01EC0DF11D808158
:1018C000803309F087C0242D297E422E842D887014
:1018D000582E43FC95C040FE8FC09C2C821418F4F7
:1018E0002C0C922C981844FE91C0B70180E390E034
:1018F0000E94320D42FE09C088E790E041FE02C01E
:1019000088E590E0B7010E94320DC91408F48AC03E
:10191000CA94D12C9FEFC91AD90ACA0CDB1CF60154
:1019200082916F01B70190E00E94320DAC14BD04AA
:10193000B1F74FCF60817181072E000C880B990B96
:101940000E5F1F4F92CFD32CE894D4F82AE030E0FA
:10195000853739F1232D297FD22E8F3601F148F4B6
:101960008835A9F0F701868197812B96E2E10C94E6
:10197000DC0D803749F08837A9F7D4FE02C068949F
:10198000D2F820E130E00DC06894D4F8F6CF34FEF0
:1019900003C0822F8660D82E20E132E002C028E00A
:1019A00030E0F801D7FE0FC06081718182819381A0
:1019B0000C5F1F4FA5010E94620DC82ECA183D2C56
:1019C000E89437F867CF6081718190E080E00E5F26
:1019D0001F4FF0CF42FC02C0839478CF839483944E
:1019E00075CF842D867809F471CFF6CFB70180E2E8
:1019F00090E00E94320D83948214C0F3512C73CF77
:101A0000522C5818821408F46ECFF8CF842D8678A3
:101A100009F47BCF8BE241FE80E247FC8DE2B70107
:101A200090E071CFB70180E390E00E94320D9A946C
:101A30006CCF8FEF9FEF99CFFC0105906150704004
:101A40000110D8F7809590958E0F9F1F0895FC0187
:101A50006150704001900110D8F7809590958E0FDD
:101A60009F1F08950F931F93CF93DF93182F092F74
:101A7000EB018B8181FD09C01FEF0FEF812F902FAC
:101A8000DF91CF911F910F91089582FF14C02E8195
:101A90003F818C819D81281739073CF4E881F981C9
:101AA000CF0101969983888310838E819F8101964F
:101AB0009F838E83E3CFE885F985812F0995892B54
:101AC000A1F3DACFFA01AA27283051F1203181F1B0
:101AD000E8946F936E7F6E5F7F4F8F4F9F4FAF4F36
:101AE000B1E03ED0B4E03CD0670F781F891F9A1F49
:101AF000A11D680F791F8A1F911DA11D6A0F711DFD
:101B0000811D911DA11D20D009F468943F912AE008
:101B1000269F11243019305D3193DEF6CF010895F0
:101B2000462F4770405D4193B3E00FD0C9F7F6CF21
:101B3000462F4F70405D4A3318F0495D31FD4052E9
:101B4000419302D0A9F7EACFB4E0A695979587957F
:101B500077956795BA95C9F700976105710508955E
:101B60009B01AC010A2E069457954795379527950A
:101B7000BA95C9F7620F731F841F951FA01D0895A2
:101B80002F923F924F925F926F927F928F929F928D
:101B9000AF92BF92CF92DF92EF92FF920F931F937B
:101BA000CF93DF93CDB7DEB7CA1BDB0B0FB6F8942C
:101BB000DEBF0FBECDBF09942A88398848885F846C
:101BC0006E847D848C849B84AA84B984C884DF80DD
:101BD000EE80FD800C811B81AA81B981CE0FD11DC1
:101BE0000FB6F894DEBF0FBECDBFED010895F89497
:021BF000FFCF25
:101BF200F4010501000101010000000001000000E4
:101C0200005E02BE01EB01AB021C02FA010E0202EF
:101C12000304050708090B0C0F10064D4853574DD6
:101C2200485357445F312E375F3478554E50554CE8
:101C3200534544000000004D4853574D4853570048
:101C420000891112239B322446AD573665BF744872
:101C52008CC19D5AAFD3BE6CCAE5DB7EE9F7F88131
:101C620010080193331A22A5562C47B7753E64C952
:101C72009C408DDBBF52AEEDDA64CBFFF976E80211
:101C8200218B30100299132667AF763444BD554A32
:101C9200ADC3BC588ED19F6EEBE7FA7CC8F5D983F1
:101CA200310A2091121803A7772E66B5543C45CB12
:101CB200BD42ACD99E508FEFFB66EAFDD874C904D1
:101CC200428D5316619F702004A9153227BB364CF2
:101CD200CEC5DF5EEDD7FC6888E1997AABF3BA85B1
:101CE200520C4397711E60A1142805B3373A26CDD2
:101CF200DE44CFDFFD56ECE9986089FBBB72AA0691
:101D0200638F7214409D512225AB343006B9174EB1
:101D1200EFC7FE5CCCD5DD6AA9E3B8788AF19B8770
:101D2200730E6295501C41A3352A24B1163807CF91
:101D3200FF46EEDDDC54CDEBB962A8F99A708B0850
:101D42008481951AA793B62CC2A5D33EE1B7F04081
:101D520008C919522BDB3A644EED5F766DFF7C8920
:101D62009400859BB712A6ADD224C3BFF136E0C161
:101D7200184809D33B5A2AE55E6C4FF77D7E6C0A00
:101D8200A583B4188691972EE3A7F23CC0B5D14241
:101D920029CB38500AD91B666FEF7E744CFD5D8BE0
:101DA200B502A499961087AFF326E2BDD034C1C321
:101DB200394A28D11A580BE77F6E6EF55C7C4D0CC0
:101DC200C685D71EE597F42880A1913AA3B3B24401
:101DD2004ACD5B5669DF78600CE91D722FFB3E8DA0
:101DE200D604C79FF516E4A9902081BBB332A2C5E1
:101DF2005A4C4BD7795E68E11C680DF33F7A2E0E80
:101E0200E787F61CC495D52AA1A3B03882B19346C0
:101E12006BCF7A5448DD59622DEB3C700EF91F8F5F
:101E2200F706E69DD414C5ABB122A0B9923083C7A0
:101E32007B4E6AD5585C49E33D6A2CF11E780F0D42
:101E42000A000A435243733A205B25755D203D3FE9
:101E52003D205B25755D0A007B25637D00465B00A6
:101E620025645D00435B0025635D005800565B00FE
:101E7200495B00535B0025755D00452825642900F8
:00000001FF
